{
  "_format": "hh-sol-artifact-1",
  "contractName": "CCMMock",
  "sourceName": "contracts/mocks/CCMMock.sol",
  "abi": [
    {
      "anonymous": false,
      "inputs": [
        {
          "indexed": false,
          "internalType": "uint64",
          "name": "toChainId",
          "type": "uint64"
        },
        {
          "indexed": false,
          "internalType": "bytes",
          "name": "toContract",
          "type": "bytes"
        },
        {
          "indexed": false,
          "internalType": "bytes",
          "name": "method",
          "type": "bytes"
        },
        {
          "indexed": false,
          "internalType": "bytes",
          "name": "txData",
          "type": "bytes"
        }
      ],
      "name": "CrossChainEvent",
      "type": "event"
    },
    {
      "inputs": [
        {
          "internalType": "address",
          "name": "_lockProxyAddr",
          "type": "address"
        },
        {
          "internalType": "address",
          "name": "_extension",
          "type": "address"
        },
        {
          "internalType": "uint64",
          "name": "_chainId",
          "type": "uint64"
        }
      ],
      "name": "addExtension",
      "outputs": [],
      "stateMutability": "nonpayable",
      "type": "function"
    },
    {
      "inputs": [
        {
          "internalType": "uint64",
          "name": "_toChainId",
          "type": "uint64"
        },
        {
          "internalType": "bytes",
          "name": "_toContract",
          "type": "bytes"
        },
        {
          "internalType": "bytes",
          "name": "_method",
          "type": "bytes"
        },
        {
          "internalType": "bytes",
          "name": "_txData",
          "type": "bytes"
        }
      ],
      "name": "crossChain",
      "outputs": [
        {
          "internalType": "bool",
          "name": "",
          "type": "bool"
        }
      ],
      "stateMutability": "nonpayable",
      "type": "function"
    },
    {
      "inputs": [
        {
          "internalType": "address",
          "name": "_lockProxyAddr",
          "type": "address"
        },
        {
          "internalType": "address",
          "name": "_assetHash",
          "type": "address"
        },
        {
          "internalType": "bytes",
          "name": "_fromProxyHash",
          "type": "bytes"
        },
        {
          "internalType": "bytes",
          "name": "_toAssetHash",
          "type": "bytes"
        },
        {
          "internalType": "uint64",
          "name": "_chainId",
          "type": "uint64"
        }
      ],
      "name": "registerAsset",
      "outputs": [],
      "stateMutability": "nonpayable",
      "type": "function"
    },
    {
      "inputs": [
        {
          "internalType": "address",
          "name": "_lockProxyAddr",
          "type": "address"
        },
        {
          "internalType": "address",
          "name": "_extension",
          "type": "address"
        },
        {
          "internalType": "uint64",
          "name": "_chainId",
          "type": "uint64"
        }
      ],
      "name": "removeExtension",
      "outputs": [],
      "stateMutability": "nonpayable",
      "type": "function"
    },
    {
      "inputs": [
        {
          "internalType": "address",
          "name": "_lockProxyAddr",
          "type": "address"
        },
        {
          "internalType": "bytes",
          "name": "_fromProxyHash",
          "type": "bytes"
        },
        {
          "internalType": "bytes",
          "name": "_fromAssetHash",
          "type": "bytes"
        },
        {
          "internalType": "address",
          "name": "_toAssetHash",
          "type": "address"
        },
        {
          "internalType": "address",
          "name": "_toAddress",
          "type": "address"
        },
        {
          "internalType": "uint256",
          "name": "_amount",
          "type": "uint256"
        },
        {
          "internalType": "uint64",
          "name": "_chainId",
          "type": "uint64"
        }
      ],
      "name": "unlock",
      "outputs": [],
      "stateMutability": "nonpayable",
      "type": "function"
    }
  ],
  "bytecode": "0x608060405234801561001057600080fd5b5061174b806100206000396000f3fe608060405234801561001057600080fd5b50600436106100575760003560e01c806348d2274a1461005c5780637b3ff6a9146101a857806391f48202146102ca578063bd5cf62514610342578063d727d9d61461048f575b600080fd5b6101a6600480360360e081101561007257600080fd5b81019080803573ffffffffffffffffffffffffffffffffffffffff169060200190929190803590602001906401000000008111156100af57600080fd5b8201836020820111156100c157600080fd5b803590602001918460018302840111640100000000831117156100e357600080fd5b90919293919293908035906020019064010000000081111561010457600080fd5b82018360208201111561011657600080fd5b8035906020019184600183028401116401000000008311171561013857600080fd5b9091929391929390803573ffffffffffffffffffffffffffffffffffffffff169060200190929190803573ffffffffffffffffffffffffffffffffffffffff16906020019092919080359060200190929190803567ffffffffffffffff169060200190929190505050610507565b005b6102c8600480360360a08110156101be57600080fd5b81019080803573ffffffffffffffffffffffffffffffffffffffff169060200190929190803573ffffffffffffffffffffffffffffffffffffffff1690602001909291908035906020019064010000000081111561021b57600080fd5b82018360208201111561022d57600080fd5b8035906020019184600183028401116401000000008311171561024f57600080fd5b90919293919293908035906020019064010000000081111561027057600080fd5b82018360208201111561028257600080fd5b803590602001918460018302840111640100000000831117156102a457600080fd5b9091929391929390803567ffffffffffffffff169060200190929190505050610713565b005b610340600480360360608110156102e057600080fd5b81019080803573ffffffffffffffffffffffffffffffffffffffff169060200190929190803573ffffffffffffffffffffffffffffffffffffffff169060200190929190803567ffffffffffffffff1690602001909291905050506108d0565b005b6104776004803603608081101561035857600080fd5b81019080803567ffffffffffffffff1690602001909291908035906020019064010000000081111561038957600080fd5b82018360208201111561039b57600080fd5b803590602001918460018302840111640100000000831117156103bd57600080fd5b9091929391929390803590602001906401000000008111156103de57600080fd5b8201836020820111156103f057600080fd5b8035906020019184600183028401116401000000008311171561041257600080fd5b90919293919293908035906020019064010000000081111561043357600080fd5b82018360208201111561044557600080fd5b8035906020019184600183028401116401000000008311171561046757600080fd5b9091929391929390505050610a1f565b60405180821515815260200191505060405180910390f35b610505600480360360608110156104a557600080fd5b81019080803573ffffffffffffffffffffffffffffffffffffffff169060200190929190803573ffffffffffffffffffffffffffffffffffffffff169060200190929190803567ffffffffffffffff169060200190929190505050610b0d565b005b61050f6116a3565b60405180610100016040528088888080601f016020809104026020016040519081016040528093929190818152602001838380828437600081840152601f19601f82011690508083019250505050505050815260200161056e87610c5c565b815260200161057c86610c5c565b8152602001848152602001600081526020016040518060200160405280600081525081526020016040518060200160405280600081525081526020016001815250905060606105ca82610c7c565b90508a73ffffffffffffffffffffffffffffffffffffffff166306af4b9f828c8c876040518563ffffffff1660e01b81526004018080602001806020018467ffffffffffffffff168152602001838103835287818151815260200191508051906020019080838360005b8381101561064f578082015181840152602081019050610634565b50505050905090810190601f16801561067c5780820380516001836020036101000a031916815260200191505b508381038252868682818152602001925080828437600081840152601f19601f8201169050808301925050509650505050505050602060405180830381600087803b1580156106ca57600080fd5b505af11580156106de573d6000803e3d6000fd5b505050506040513d60208110156106f457600080fd5b8101908080519060200190929190505050505050505050505050505050565b61071b6116e8565b604051806040016040528085858080601f016020809104026020016040519081016040528093929190818152602001838380828437600081840152601f19601f82011690508083019250505050505050815260200161077989610c5c565b8152509050606061078982610f9a565b90508873ffffffffffffffffffffffffffffffffffffffff166337aca7f2828989876040518563ffffffff1660e01b81526004018080602001806020018467ffffffffffffffff168152602001838103835287818151815260200191508051906020019080838360005b8381101561080e5780820151818401526020810190506107f3565b50505050905090810190601f16801561083b5780820380516001836020036101000a031916815260200191505b508381038252868682818152602001925080828437600081840152601f19601f8201169050808301925050509650505050505050602060405180830381600087803b15801561088957600080fd5b505af115801561089d573d6000803e3d6000fd5b505050506040513d60208110156108b357600080fd5b810190808051906020019092919050505050505050505050505050565b6108d8611702565b60405180602001604052806108ec85610c5c565b815250905060606108fc8261107e565b90508473ffffffffffffffffffffffffffffffffffffffff16633bd6e7f882856040518363ffffffff1660e01b81526004018080602001806020018467ffffffffffffffff168152602001838103835285818151815260200191508051906020019080838360005b8381101561097f578082015181840152602081019050610964565b50505050905090810190601f1680156109ac5780820380516001836020036101000a031916815260200191505b50838103825260008152602001602001945050505050602060405180830381600087803b1580156109dc57600080fd5b505af11580156109f0573d6000803e3d6000fd5b505050506040513d6020811015610a0657600080fd5b8101908080519060200190929190505050505050505050565b60007f141035fcafc38d6fbb481a3797285d4b58a6d75f0f1a5a1fc42c53c6d4f2a94988888888888888604051808867ffffffffffffffff16815260200180602001806020018060200184810384528a8a82818152602001925080828437600081840152601f19601f8201169050808301925050508481038352888882818152602001925080828437600081840152601f19601f8201169050808301925050508481038252868682818152602001925080828437600081840152601f19601f8201169050808301925050509a505050505050505050505060405180910390a160019050979650505050505050565b610b15611702565b6040518060200160405280610b2985610c5c565b81525090506060610b398261107e565b90508473ffffffffffffffffffffffffffffffffffffffff1663e2bebb6682856040518363ffffffff1660e01b81526004018080602001806020018467ffffffffffffffff168152602001838103835285818151815260200191508051906020019080838360005b83811015610bbc578082015181840152602081019050610ba1565b50505050905090810190601f168015610be95780820380516001836020036101000a031916815260200191505b50838103825260008152602001602001945050505050602060405180830381600087803b158015610c1957600080fd5b505af1158015610c2d573d6000803e3d6000fd5b505050506040513d6020811015610c4357600080fd5b8101908080519060200190929190505050505050505050565b60606040519050601481528160601b602082015260408101604052919050565b606080610c8c8360000151611103565b610c998460200151611103565b610ca68560400151611103565b610cb386606001516111d9565b610cc087608001516111d9565b610ccd8860a00151611103565b610cda8960c00151611103565b610ce78a60e001516111d9565b6040516020018089805190602001908083835b60208310610d1d5780518252602082019150602081019050602083039250610cfa565b6001836020036101000a03801982511681845116808217855250505050505090500188805190602001908083835b60208310610d6e5780518252602082019150602081019050602083039250610d4b565b6001836020036101000a03801982511681845116808217855250505050505090500187805190602001908083835b60208310610dbf5780518252602082019150602081019050602083039250610d9c565b6001836020036101000a03801982511681845116808217855250505050505090500186805190602001908083835b60208310610e105780518252602082019150602081019050602083039250610ded565b6001836020036101000a03801982511681845116808217855250505050505090500185805190602001908083835b60208310610e615780518252602082019150602081019050602083039250610e3e565b6001836020036101000a03801982511681845116808217855250505050505090500184805190602001908083835b60208310610eb25780518252602082019150602081019050602083039250610e8f565b6001836020036101000a03801982511681845116808217855250505050505090500183805190602001908083835b60208310610f035780518252602082019150602081019050602083039250610ee0565b6001836020036101000a03801982511681845116808217855250505050505090500182805190602001908083835b60208310610f545780518252602082019150602081019050602083039250610f31565b6001836020036101000a03801982511681845116808217855250505050505090500198505050505050505050604051602081830303815290604052905080915050919050565b606080610faa8360000151611103565b610fb78460200151611103565b6040516020018083805190602001908083835b60208310610fed5780518252602082019150602081019050602083039250610fca565b6001836020036101000a03801982511681845116808217855250505050505090500182805190602001908083835b6020831061103e578051825260208201915060208101905060208303925061101b565b6001836020036101000a03801982511681845116808217855250505050505090500192505050604051602081830303815290604052905080915050919050565b60608061108e8360000151611103565b6040516020018082805190602001908083835b602083106110c457805182526020820191506020810190506020830392506110a1565b6001836020036101000a038019825116818451168082178552505050505050905001915050604051602081830303815290604052905080915050919050565b6060600082519050611114816112b8565b836040516020018083805190602001908083835b6020831061114b5780518252602082019150602081019050602083039250611128565b6001836020036101000a03801982511681845116808217855250505050505090500182805190602001908083835b6020831061119c5780518252602082019150602081019050602083039250611179565b6001836020036101000a03801982511681845116808217855250505050505090500192505050604051602081830303815290604052915050919050565b60607f7fffffffffffffffffffffffffffffffffffffffffffffffffffffffffffffff821115611271576040517f08c379a000000000000000000000000000000000000000000000000000000000815260040180806020018281038252601b8152602001807f56616c756520657863656564732075696e743235352072616e6765000000000081525060200191505060405180910390fd5b6060604051905060208082526000601f5b828210156112a55785811a82602086010153600182019150600181039050611282565b5050604082016040525080915050919050565b606060fd8267ffffffffffffffff1610156112dd576112d682611591565b905061158c565b61ffff8267ffffffffffffffff16116113c9576112fd60fd60f81b6115b6565b611306836115cb565b6040516020018083805190602001908083835b6020831061133c5780518252602082019150602081019050602083039250611319565b6001836020036101000a03801982511681845116808217855250505050505090500182805190602001908083835b6020831061138d578051825260208201915060208101905060208303925061136a565b6001836020036101000a03801982511681845116808217855250505050505090500192505050604051602081830303815290604052905061158c565b63ffffffff8267ffffffffffffffff16116114b7576113eb60fe60f81b6115b6565b6113f483611613565b6040516020018083805190602001908083835b6020831061142a5780518252602082019150602081019050602083039250611407565b6001836020036101000a03801982511681845116808217855250505050505090500182805190602001908083835b6020831061147b5780518252602082019150602081019050602083039250611458565b6001836020036101000a03801982511681845116808217855250505050505090500192505050604051602081830303815290604052905061158c565b6114c460ff60f81b6115b6565b6114cd8361165b565b6040516020018083805190602001908083835b6020831061150357805182526020820191506020810190506020830392506114e0565b6001836020036101000a03801982511681845116808217855250505050505090500182805190602001908083835b602083106115545780518252602082019150602081019050602083039250611531565b6001836020036101000a0380198251168184511680821785525050505050509050019250505060405160208183030381529060405290505b919050565b6060806040519050600181528260f81b60208201526021810160405280915050919050565b60606115c48260f81c611591565b9050919050565b606080604051905060028082526000601f5b828210156116005785811a826020860101536001820191506001810390506115dd565b5050602282016040525080915050919050565b606080604051905060048082526000601f5b828210156116485785811a82602086010153600182019150600181039050611625565b5050602482016040525080915050919050565b606080604051905060088082526000601f5b828210156116905785811a8260208601015360018201915060018103905061166d565b5050602882016040525080915050919050565b60405180610100016040528060608152602001606081526020016060815260200160008152602001600081526020016060815260200160608152602001600081525090565b604051806040016040528060608152602001606081525090565b604051806020016040528060608152509056fea2646970667358221220941d19628edc8ff4069000643a13616cc137af1afafd258b59fa6fe2493c52fc64736f6c634300060c0033",
  "linkReferences": {},
  "deployedLinkReferences": {}
}