{
  "_format": "hh-sol-artifact-1",
  "contractName": "BalanceReader",
  "sourceName": "contracts/BalanceReader.sol",
  "abi": [
    {
      "inputs": [
        {
          "internalType": "address",
          "name": "_user",
          "type": "address"
        },
        {
          "internalType": "address[]",
          "name": "_assetIds",
          "type": "address[]"
        }
      ],
      "name": "getBalances",
      "outputs": [
        {
          "internalType": "uint256[]",
          "name": "",
          "type": "uint256[]"
        }
      ],
      "stateMutability": "view",
      "type": "function"
    }
  ],
  "bytecode": "0x608060405234801561001057600080fd5b506103c5806100206000396000f3fe608060405234801561001057600080fd5b506004361061002b5760003560e01c80636a385ae914610030575b600080fd5b6101066004803603604081101561004657600080fd5b81019080803573ffffffffffffffffffffffffffffffffffffffff1690602001909291908035906020019064010000000081111561008357600080fd5b82018360208201111561009557600080fd5b803590602001918460208302840111640100000000831117156100b757600080fd5b919080806020026020016040519081016040528093929190818152602001838360200280828437600081840152601f19601f82011690508083019250505050505050919291929050505061015d565b6040518080602001828103825283818151815260200191508051906020019060200280838360005b8381101561014957808201518184015260208101905061012e565b505050509050019250505060405180910390f35b606080825167ffffffffffffffff8111801561017857600080fd5b506040519080825280602002602001820160405280156101a75781602001602082028036833780820191505090505b50905060005b835181101561033957600073ffffffffffffffffffffffffffffffffffffffff168482815181106101da57fe5b602002602001015173ffffffffffffffffffffffffffffffffffffffff161415610233578473ffffffffffffffffffffffffffffffffffffffff163182828151811061022257fe5b60200260200101818152505061032c565b61024f84828151811061024257fe5b6020026020010151610344565b6102585761032c565b600084828151811061026657fe5b602002602001015190508073ffffffffffffffffffffffffffffffffffffffff166370a08231876040518263ffffffff1660e01b8152600401808273ffffffffffffffffffffffffffffffffffffffff16815260200191505060206040518083038186803b1580156102d757600080fd5b505afa1580156102eb573d6000803e3d6000fd5b505050506040513d602081101561030157600080fd5b810190808051906020019092919050505083838151811061031e57fe5b602002602001018181525050505b80806001019150506101ad565b508091505092915050565b60008060007fc5d2460186f7233c927e7db2dcc703c0e500b653ca82273b7bfad8045d85a47060001b9050833f91506000801b82141580156103865750808214155b9250505091905056fea264697066735822122025fc01b3794764fa56d4a1483347847035090de73839abc58d854f8f81ebd76764736f6c634300060c0033",
  "linkReferences": {},
  "deployedLinkReferences": {}
}